{
  "_format": "hh-sol-artifact-1",
  "contractName": "Bet",
  "sourceName": "contracts/Bet.sol",
  "abi": [
    {
      "inputs": [],
      "stateMutability": "payable",
      "type": "constructor"
    },
    {
      "anonymous": false,
      "inputs": [
        {
          "indexed": true,
          "internalType": "address",
          "name": "from",
          "type": "address"
        },
        {
          "indexed": true,
          "internalType": "address",
          "name": "to",
          "type": "address"
        },
        {
          "indexed": false,
          "internalType": "uint256",
          "name": "amount",
          "type": "uint256"
        }
      ],
      "name": "Payment",
      "type": "event"
    },
    {
      "inputs": [
        {
          "internalType": "address payable",
          "name": "winner",
          "type": "address"
        },
        {
          "internalType": "uint256",
          "name": "amount",
          "type": "uint256"
        }
      ],
      "name": "payment",
      "outputs": [],
      "stateMutability": "payable",
      "type": "function"
    },
    {
      "inputs": [
        {
          "internalType": "string",
          "name": "message",
          "type": "string"
        }
      ],
      "name": "setBet",
      "outputs": [],
      "stateMutability": "payable",
      "type": "function"
    },
    {
      "inputs": [],
      "name": "withdraw",
      "outputs": [],
      "stateMutability": "payable",
      "type": "function"
    }
  ],
  "bytecode": "0x6080604052620000506040518060400160405280601f81526020017f436f6e7472616374207374617274656420776974682062616c616e63653a2000815250476200009660201b620004f81760201c565b336000806101000a81548173ffffffffffffffffffffffffffffffffffffffff021916908373ffffffffffffffffffffffffffffffffffffffff16021790555062000258565b620001388282604051602401620000af929190620001b7565b6040516020818303038152906040527f9710a9d0000000000000000000000000000000000000000000000000000000007bffffffffffffffffffffffffffffffffffffffffffffffffffffffff19166020820180517bffffffffffffffffffffffffffffffffffffffffffffffffffffffff83818316178352505050506200013c60201b60201c565b5050565b60008151905060006a636f6e736f6c652e6c6f679050602083016000808483855afa5050505050565b60006200017282620001eb565b6200017e8185620001f6565b93506200019081856020860162000211565b6200019b8162000247565b840191505092915050565b620001b18162000207565b82525050565b60006040820190508181036000830152620001d3818562000165565b9050620001e46020830184620001a6565b9392505050565b600081519050919050565b600082825260208201905092915050565b6000819050919050565b60005b838110156200023157808201518184015260208101905062000214565b8381111562000241576000848401525b50505050565b6000601f19601f8301169050919050565b610cef80620002686000396000f3fe6080604052600436106100345760003560e01c80631b57f55a146100395780633ccfd60b1461005557806367a09c231461005f575b600080fd5b610053600480360381019061004e91906107c0565b61007b565b005b61005d610156565b005b61007960048036038101906100749190610784565b61027f565b005b343373ffffffffffffffffffffffffffffffffffffffff163110156100d5576040517f08c379a00000000000000000000000000000000000000000000000000000000081526004016100cc90610a5f565b60405180910390fd5b3073ffffffffffffffffffffffffffffffffffffffff166108fc349081150290604051600060405180830381858888f193505050505061011481610594565b6101536040518060400160405280601381526020017f42616c616e6365206f6620636f6e747261637400000000000000000000000000815250476104f8565b50565b60008054906101000a900473ffffffffffffffffffffffffffffffffffffffff1673ffffffffffffffffffffffffffffffffffffffff163373ffffffffffffffffffffffffffffffffffffffff16146101e4576040517f08c379a00000000000000000000000000000000000000000000000000000000081526004016101db90610a9f565b60405180910390fd5b47341115610227576040517f08c379a000000000000000000000000000000000000000000000000000000000815260040161021e90610abf565b60405180910390fd5b60008054906101000a900473ffffffffffffffffffffffffffffffffffffffff1673ffffffffffffffffffffffffffffffffffffffff166108fc349081150290604051600060405180830381858888f1935050505050565b60008054906101000a900473ffffffffffffffffffffffffffffffffffffffff1673ffffffffffffffffffffffffffffffffffffffff163373ffffffffffffffffffffffffffffffffffffffff161461030d576040517f08c379a000000000000000000000000000000000000000000000000000000000815260040161030490610adf565b60405180910390fd5b47811115610350576040517f08c379a000000000000000000000000000000000000000000000000000000000815260040161034790610a7f565b60405180910390fd5b6103a66040518060400160405280601a81526020017f42616c616e6365206f662077696e6e6572206265666f72653a200000000000008152508373ffffffffffffffffffffffffffffffffffffffff16316104f8565b8173ffffffffffffffffffffffffffffffffffffffff166108fc829081150290604051600060405180830381858888f193505050501580156103ec573d6000803e3d6000fd5b5061040f604051806060016040528060248152602001610c9660249139476104f8565b8173ffffffffffffffffffffffffffffffffffffffff163073ffffffffffffffffffffffffffffffffffffffff167f8ed7db30df47fbd87811a5e8a95a94838f0c0241263d9a1865d6a2a3e10516e28360405161046c9190610aff565b60405180910390a361049e3360008054906101000a900473ffffffffffffffffffffffffffffffffffffffff1661062d565b6104f46040518060400160405280601981526020017f42616c616e6365206f662077696e6e65722061667465723a20000000000000008152508373ffffffffffffffffffffffffffffffffffffffff16316104f8565b5050565b610590828260405160240161050e929190610a2f565b6040516020818303038152906040527f9710a9d0000000000000000000000000000000000000000000000000000000007bffffffffffffffffffffffffffffffffffffffffffffffffffffffff19166020820180517bffffffffffffffffffffffffffffffffffffffffffffffffffffffff83818316178352505050506106c9565b5050565b61062a816040516024016105a89190610a0d565b6040516020818303038152906040527f41304fac000000000000000000000000000000000000000000000000000000007bffffffffffffffffffffffffffffffffffffffffffffffffffffffff19166020820180517bffffffffffffffffffffffffffffffffffffffffffffffffffffffff83818316178352505050506106c9565b50565b6106c582826040516024016106439291906109e4565b6040516020818303038152906040527fdaf0d4aa000000000000000000000000000000000000000000000000000000007bffffffffffffffffffffffffffffffffffffffffffffffffffffffff19166020820180517bffffffffffffffffffffffffffffffffffffffffffffffffffffffff83818316178352505050506106c9565b5050565b60008151905060006a636f6e736f6c652e6c6f679050602083016000808483855afa5050505050565b600061070561070084610b4b565b610b1a565b90508281526020810184848401111561071d57600080fd5b610728848285610be5565b509392505050565b60008135905061073f81610c67565b92915050565b600082601f83011261075657600080fd5b81356107668482602086016106f2565b91505092915050565b60008135905061077e81610c7e565b92915050565b6000806040838503121561079757600080fd5b60006107a585828601610730565b92505060206107b68582860161076f565b9150509250929050565b6000602082840312156107d257600080fd5b600082013567ffffffffffffffff8111156107ec57600080fd5b6107f884828501610745565b91505092915050565b61080a81610b97565b82525050565b600061081b82610b7b565b6108258185610b86565b9350610835818560208601610bf4565b61083e81610c56565b840191505092915050565b6000610856601a83610b86565b91507f596f75722062616c616e6365206973206e6f7420656e6f7567680000000000006000830152602082019050919050565b6000610896603b83610b86565b91507f596f7527726520747279696e6720746f207769746864726177206d6f7265206160008301527f6d6f756e74207468616e20636f6e74726163742062616c616e636500000000006020830152604082019050919050565b60006108fc601d83610b86565b91507f596f752063616e6e6f742063616c6c20746869732066756e6374696f6e0000006000830152602082019050919050565b600061093c601283610b86565b91507f496e73756666696369656e742066756e647300000000000000000000000000006000830152602082019050919050565b600061097c602183610b86565b91507f596f752063616e206e6f742063616c6c2074686973207472616e73616374696f60008301527f6e000000000000000000000000000000000000000000000000000000000000006020830152604082019050919050565b6109de81610bdb565b82525050565b60006040820190506109f96000830185610801565b610a066020830184610801565b9392505050565b60006020820190508181036000830152610a278184610810565b905092915050565b60006040820190508181036000830152610a498185610810565b9050610a5860208301846109d5565b9392505050565b60006020820190508181036000830152610a7881610849565b9050919050565b60006020820190508181036000830152610a9881610889565b9050919050565b60006020820190508181036000830152610ab8816108ef565b9050919050565b60006020820190508181036000830152610ad88161092f565b9050919050565b60006020820190508181036000830152610af88161096f565b9050919050565b6000602082019050610b1460008301846109d5565b92915050565b6000604051905081810181811067ffffffffffffffff82111715610b4157610b40610c27565b5b8060405250919050565b600067ffffffffffffffff821115610b6657610b65610c27565b5b601f19601f8301169050602081019050919050565b600081519050919050565b600082825260208201905092915050565b6000610ba282610bbb565b9050919050565b6000610bb482610bbb565b9050919050565b600073ffffffffffffffffffffffffffffffffffffffff82169050919050565b6000819050919050565b82818337600083830152505050565b60005b83811015610c12578082015181840152602081019050610bf7565b83811115610c21576000848401525b50505050565b7f4e487b7100000000000000000000000000000000000000000000000000000000600052604160045260246000fd5b6000601f19601f8301169050919050565b610c7081610ba9565b8114610c7b57600080fd5b50565b610c8781610bdb565b8114610c9257600080fd5b5056fe42616c616e6365206f6620636f6e74726163742061667465722077697468647261773a20a26469706673582212206368cd0dde47267a804c8fd59346380b5bc75f978bfadd2d1f6ad8864ad0db8364736f6c63430008000033",
  "linkReferences": {},
  "deployedLinkReferences": {}
}