{
  "_format": "hh-sol-artifact-1",
  "contractName": "Bet",
  "sourceName": "contracts/Bet.sol",
  "abi": [
    {
      "inputs": [],
      "stateMutability": "payable",
      "type": "constructor"
    },
    {
      "inputs": [
        {
          "internalType": "string",
          "name": "message",
          "type": "string"
        }
      ],
      "name": "setBet",
      "outputs": [],
      "stateMutability": "payable",
      "type": "function"
    },
    {
      "inputs": [
        {
          "internalType": "address payable",
          "name": "winner",
          "type": "address"
        },
        {
          "internalType": "uint256",
          "name": "amount",
          "type": "uint256"
        }
      ],
      "name": "withdrawCash",
      "outputs": [],
      "stateMutability": "payable",
      "type": "function"
    }
  ],
  "bytecode": "0x6080604052620000506040518060400160405280601f81526020017f436f6e7472616374207374617274656420776974682062616c616e63653a2000815250476200009660201b620003551760201c565b336000806101000a81548173ffffffffffffffffffffffffffffffffffffffff021916908373ffffffffffffffffffffffffffffffffffffffff16021790555062000258565b620001388282604051602401620000af929190620001b7565b6040516020818303038152906040527f9710a9d0000000000000000000000000000000000000000000000000000000007bffffffffffffffffffffffffffffffffffffffffffffffffffffffff19166020820180517bffffffffffffffffffffffffffffffffffffffffffffffffffffffff83818316178352505050506200013c60201b60201c565b5050565b60008151905060006a636f6e736f6c652e6c6f679050602083016000808483855afa5050505050565b60006200017282620001eb565b6200017e8185620001f6565b93506200019081856020860162000211565b6200019b8162000247565b840191505092915050565b620001b18162000207565b82525050565b60006040820190508181036000830152620001d3818562000165565b9050620001e46020830184620001a6565b9392505050565b600081519050919050565b600082825260208201905092915050565b6000819050919050565b60005b838110156200023157808201518184015260208101905062000214565b8381111562000241576000848401525b50505050565b6000601f19601f8301169050919050565b610a7180620002686000396000f3fe6080604052600436106100295760003560e01c80631b57f55a1461002e578063289f63831461004a575b600080fd5b6100486004803603810190610043919061061d565b610066565b005b610064600480360381019061005f91906105e1565b610141565b005b343373ffffffffffffffffffffffffffffffffffffffff163110156100c0576040517f08c379a00000000000000000000000000000000000000000000000000000000081526004016100b79061083c565b60405180910390fd5b3073ffffffffffffffffffffffffffffffffffffffff166108fc349081150290604051600060405180830381858888f19350505050506100ff816103f1565b61013e6040518060400160405280601381526020017f42616c616e6365206f6620636f6e74726163740000000000000000000000000081525047610355565b50565b60008054906101000a900473ffffffffffffffffffffffffffffffffffffffff1673ffffffffffffffffffffffffffffffffffffffff163373ffffffffffffffffffffffffffffffffffffffff16146101cf576040517f08c379a00000000000000000000000000000000000000000000000000000000081526004016101c69061087c565b60405180910390fd5b47811115610212576040517f08c379a00000000000000000000000000000000000000000000000000000000081526004016102099061085c565b60405180910390fd5b6102686040518060400160405280601a81526020017f42616c616e6365206f662077696e6e6572206265666f72653a200000000000008152508373ffffffffffffffffffffffffffffffffffffffff1631610355565b8173ffffffffffffffffffffffffffffffffffffffff166108fc829081150290604051600060405180830381858888f193505050501580156102ae573d6000803e3d6000fd5b506102d1604051806060016040528060248152602001610a186024913947610355565b6102fb3360008054906101000a900473ffffffffffffffffffffffffffffffffffffffff1661048a565b6103516040518060400160405280601981526020017f42616c616e6365206f662077696e6e65722061667465723a20000000000000008152508373ffffffffffffffffffffffffffffffffffffffff1631610355565b5050565b6103ed828260405160240161036b92919061080c565b6040516020818303038152906040527f9710a9d0000000000000000000000000000000000000000000000000000000007bffffffffffffffffffffffffffffffffffffffffffffffffffffffff19166020820180517bffffffffffffffffffffffffffffffffffffffffffffffffffffffff8381831617835250505050610526565b5050565b6104878160405160240161040591906107ea565b6040516020818303038152906040527f41304fac000000000000000000000000000000000000000000000000000000007bffffffffffffffffffffffffffffffffffffffffffffffffffffffff19166020820180517bffffffffffffffffffffffffffffffffffffffffffffffffffffffff8381831617835250505050610526565b50565b61052282826040516024016104a09291906107c1565b6040516020818303038152906040527fdaf0d4aa000000000000000000000000000000000000000000000000000000007bffffffffffffffffffffffffffffffffffffffffffffffffffffffff19166020820180517bffffffffffffffffffffffffffffffffffffffffffffffffffffffff8381831617835250505050610526565b5050565b60008151905060006a636f6e736f6c652e6c6f679050602083016000808483855afa5050505050565b600061056261055d846108cd565b61089c565b90508281526020810184848401111561057a57600080fd5b610585848285610967565b509392505050565b60008135905061059c816109e9565b92915050565b600082601f8301126105b357600080fd5b81356105c384826020860161054f565b91505092915050565b6000813590506105db81610a00565b92915050565b600080604083850312156105f457600080fd5b60006106028582860161058d565b9250506020610613858286016105cc565b9150509250929050565b60006020828403121561062f57600080fd5b600082013567ffffffffffffffff81111561064957600080fd5b610655848285016105a2565b91505092915050565b61066781610919565b82525050565b6000610678826108fd565b6106828185610908565b9350610692818560208601610976565b61069b816109d8565b840191505092915050565b60006106b3601a83610908565b91507f596f75722062616c616e6365206973206e6f7420656e6f7567680000000000006000830152602082019050919050565b60006106f3603b83610908565b91507f596f7527726520747279696e6720746f207769746864726177206d6f7265206160008301527f6d6f756e74207468616e20636f6e74726163742062616c616e636500000000006020830152604082019050919050565b6000610759602183610908565b91507f596f752063616e206e6f742063616c6c2074686973207472616e73616374696f60008301527f6e000000000000000000000000000000000000000000000000000000000000006020830152604082019050919050565b6107bb8161095d565b82525050565b60006040820190506107d6600083018561065e565b6107e3602083018461065e565b9392505050565b60006020820190508181036000830152610804818461066d565b905092915050565b60006040820190508181036000830152610826818561066d565b905061083560208301846107b2565b9392505050565b60006020820190508181036000830152610855816106a6565b9050919050565b60006020820190508181036000830152610875816106e6565b9050919050565b600060208201905081810360008301526108958161074c565b9050919050565b6000604051905081810181811067ffffffffffffffff821117156108c3576108c26109a9565b5b8060405250919050565b600067ffffffffffffffff8211156108e8576108e76109a9565b5b601f19601f8301169050602081019050919050565b600081519050919050565b600082825260208201905092915050565b60006109248261093d565b9050919050565b60006109368261093d565b9050919050565b600073ffffffffffffffffffffffffffffffffffffffff82169050919050565b6000819050919050565b82818337600083830152505050565b60005b83811015610994578082015181840152602081019050610979565b838111156109a3576000848401525b50505050565b7f4e487b7100000000000000000000000000000000000000000000000000000000600052604160045260246000fd5b6000601f19601f8301169050919050565b6109f28161092b565b81146109fd57600080fd5b50565b610a098161095d565b8114610a1457600080fd5b5056fe42616c616e6365206f6620636f6e74726163742061667465722077697468647261773a20a26469706673582212209ce8ca355ff87924a3eac066a3a0e4af61981fea6a855f3347c18d866c4f5b9864736f6c63430008000033",
  "linkReferences": {},
  "deployedLinkReferences": {}
}